:100000000C942A000C9447000C9447000C94470071
:100010000C9447000C9418070C9447000C9447006C
:100020000C9447000C9447000C9447000C94470034
:100030000C9447000C9447000C9447000C94470024
:100040000C9447000C9447000C9447000C94470014
:100050000C94470011241FBECFE5D8E0DEBFCDBF12
:1000600010E0A0E6B0E0EAE8FEE002C005900D92E4
:10007000A63CB107D9F710E0A6ECB0E001C01D9294
:10008000AC3CB107E1F70E9464050C9443070C9463
:1000900000006FEF0E9460020895CF93DF93CDB709
:1000A000DEB72A970FB6F894DEBF0FBECDBFDE01D4
:1000B0001196E0E6F0E09AE001900D929150E1F7A0
:1000C000FE01E60FF11D61810E947F022A960FB6A4
:1000D000F894DEBF0FBECDBFDF91CF910895CF93CF
:1000E000C82F60E041E00E9489008C2F61E041E070
:1000F0000E9489008C2F62E041E00E9489008C2FD1
:1001000063E041E00E948900CF9108950E94750349
:100110000895843409F471C0853448F4823499F127
:10012000833408F04DC0813409F083C00FC082369B
:1001300051F1833620F4813609F07BC007C0833645
:1001400009F43EC0843609F074C057C0413069F4E8
:100150002AB381E090E0AC0102C0440F551F6A95BC
:10016000E2F7BA01622B6ABB08952AB381E090E0FE
:10017000AC0102C0440F551F6A95E2F7BA016095C1
:1001800062236ABB0895413069F427B381E090E0AF
:10019000AC0102C0440F551F6A95E2F7BA01622B09
:1001A00067BB089527B381E090E0AC0102C0440F23
:1001B000551F6A95E2F7BA016095622367BB0895FF
:1001C000413069F424B381E090E0AC0102C0440FF7
:1001D000551F6A95E2F7BA01622B64BB089524B3F8
:1001E00081E090E0AC0102C0440F551F6A95E2F730
:1001F000BA016095622364BB0895413069F421B36C
:1002000081E090E0AC0102C0440F551F6A95E2F70F
:10021000BA01622B61BB089521B381E090E0AC018B
:1002200002C0440F551F6A95E2F7BA016095622338
:1002300061BB0895843409F471C0853448F4823474
:1002400099F1833408F04DC0813409F083C00FC0A8
:10025000823651F1833620F4813609F07BC007C025
:10026000833609F43EC0843609F074C057C041306B
:1002700069F42BB381E090E0AC0102C0440F551F3C
:100280006A95E2F7BA01622B6BBB08952BB381E04C
:1002900090E0AC0102C0440F551F6A95E2F7BA0125
:1002A000609562236BBB0895413069F428B381E007
:1002B00090E0AC0102C0440F551F6A95E2F7BA0105
:1002C000622B68BB089528B381E090E0AC0102C0C6
:1002D000440F551F6A95E2F7BA016095622368BB27
:1002E0000895413069F425B381E090E0AC0102C08B
:1002F000440F551F6A95E2F7BA01622B65BB08955A
:1003000025B381E090E0AC0102C0440F551F6A950F
:10031000E2F7BA016095622365BB0895413069F444
:1003200022B381E090E0AC0102C0440F551F6A95F2
:10033000E2F7BA01622B62BB089522B381E090E03C
:10034000AC0102C0440F551F6A95E2F7BA016095EF
:10035000622362BB0895843409F43DC0853440F4BF
:100360008234F9F0833450F5813409F040C00CC078
:100370008236B9F0833618F48136C9F505C0833664
:10038000E9F08436A1F527C02BB381E090E0AC0101
:1003900002C0440F551F6A95E2F7BA0162276BBB92
:1003A000089528B381E090E0AC0102C0440F551FCE
:1003B0006A95E2F7BA01622768BB089525B381E028
:1003C00090E0AC0102C0440F551F6A95E2F7BA01F4
:1003D000622765BB089522B381E090E0AC0102C0C2
:1003E000440F551F6A95E2F7BA01622762BB089570
:1003F000843409F451C0853440F4823439F18334B3
:10040000C0F5813409F05AC00EC08236F9F0833647
:1004100020F4813609F052C006C0833651F184368B
:1004200009F04CC039C029B381E090E0062E02C02B
:10043000880F991F0A94E2F730E08223932302C0C9
:10044000969587956A95E2F7982F38C026B381E094
:1004500090E0062E02C0880F991F0A94E2F730E060
:100460008223932302C0969587956A95E2F7982F89
:1004700025C023B381E090E0062E02C0880F991FAB
:100480000A94E2F730E08223932302C09695879581
:100490006A95E2F7982F12C020B381E090E0062E13
:1004A00002C0880F991F0A94E2F730E08223932359
:1004B00002C0969587956A95E2F7982F892F08953F
:1004C0008434D9F0853438F4823499F0833498F444
:1004D0008134A1F40CC0823661F0833618F4813681
:1004E00069F405C0833639F0843641F406C06ABB2E
:1004F000089567BB089564BB089561BB0895843473
:10050000D9F0853438F4823499F0833498F4813406
:10051000A1F40CC0823661F0833618F4813669F498
:1005200005C0833639F0843641F406C06BBB0895AC
:1005300068BB089565BB089562BB0895843409F1D2
:10054000853438F48234A9F08334B8F48134E1F48A
:100550000CC0823671F0833618F48136A9F405C0D8
:10056000833659F0843681F40CC08BB380958BBBF5
:10057000089588B3809588BB089585B3809585BB21
:10058000089582B3809582BB08958434D9F0853470
:1005900038F4823499F0833498F48134A1F40CC097
:1005A000823661F0833618F4813669F405C08336EB
:1005B00039F0843641F406C089B3089586B30895AE
:1005C00083B3089580B30895843409F471C08534E9
:1005D00048F4823499F1833408F04DC0813409F035
:1005E00083C00FC0823651F1833620F4813609F082
:1005F0007BC007C0833609F43EC0843609F074C05E
:1006000057C0413069F42BB381E090E0AC0102C0E7
:10061000440F551F6A95E2F7BA01622B6BBB089530
:100620002BB381E090E0AC0102C0440F551F6A95E6
:10063000E2F7BA01609562236BBB0895413069F41B
:1006400028B381E090E0AC0102C0440F551F6A95C9
:10065000E2F7BA01622B68BB089528B381E090E00D
:10066000AC0102C0440F551F6A95E2F7BA016095CC
:10067000622368BB0895413069F425B381E090E0BE
:10068000AC0102C0440F551F6A95E2F7BA01622B14
:1006900065BB089525B381E090E0AC0102C0440F32
:1006A000551F6A95E2F7BA016095622365BB08950C
:1006B000413069F422B381E090E0AC0102C0440F04
:1006C000551F6A95E2F7BA01622B62BB089522B307
:1006D00081E090E0AC0102C0440F551F6A95E2F73B
:1006E000BA016095622362BB08956F70843451F142
:1006F000853438F48234C1F08334E8F4813441F530
:100700000CC0823689F0833618F4813609F505C0AD
:10071000833689F08436E1F415C08BB3807F8BBBC0
:100720008BB3682B6BBB089588B3807F88BB88B37D
:10073000682B68BB089585B3807F85BB85B3682B24
:1007400065BB089582B3807F82BB82B3682B62BB96
:1007500008956295607F843451F1853438F4823491
:10076000C1F08334E8F4813441F50CC0823689F05D
:10077000833618F4813609F505C0833689F084364E
:10078000E1F415C08BB38F708BBB8BB3682B6BBB45
:10079000089588B38F7088BB88B3682B68BB0895B1
:1007A00085B38F7085BB85B3682B65BB089582B315
:1007B0008F7082BB82B3682B62BB089584E460E0D3
:1007C00041E00E94890084E461E041E00E948900E8
:1007D00084E462E041E00E94890084E463E041E057
:1007E0000E94890084E464E040E00E94890084E47F
:1007F00065E040E00E94890084E466E040E00E94F9
:10080000890084E467E040E00E94890084E464E0B9
:1008100041E00E94E40284E465E041E00E94E402D9
:1008200084E466E041E00E94E40284E467E041E0A1
:100830000E94E4020895EF92FF921F93CF93DF93FB
:10084000CDB7DEB760970FB6F894DEBF0FBECDBF51
:10085000DE011196EAE6F0E080E101900D92815010
:10086000E1F7EE24FF2484E460E041E00E941A01F5
:1008700084E461E041E00E941A0184E462E041E026
:100880000E941A0184E463E041E00E941A0184E4BA
:100890006E2D40E00E941A0110E0612F6C5F84E42D
:1008A0000E94F801882389F4F701EE0FFF1FEE0F75
:1008B000FF1FE10FF11D81E090E08C0F9D1FE80FFD
:1008C000F91F80818F3F21F00BC01F5F143029F783
:1008D0000894E11CF11C94E0E916F10421F68FEF75
:1008E00060960FB6F894DEBF0FBECDBFDF91CF91FB
:1008F0001F91FF90EF90089582E464E041E00E9430
:100900001A018FE99FE00197F1F700C0000082E42F
:1009100064E040E00E941A018FE99FE00197F1F73F
:1009200000C000000895CF93C82F682F62956F70A4
:1009300082E40E94750382E465E041E00E941A01AE
:100940000E947C0482E46C2F0E94750382E465E0BF
:1009500041E00E941A010E947C04CF910895CF9338
:10096000C82F682F62956F7082E40E94750382E43D
:1009700065E040E00E941A010E947C0482E46C2F32
:100980000E94750382E465E040E00E941A010E9423
:100990007C04CF9108958FEF91EEA4E081509040B8
:1009A000A040E1F700C0000082E460E041E00E9466
:1009B000890082E461E041E00E94890082E462E013
:1009C00041E00E94890082E463E041E00E948900E6
:1009D00082E464E041E00E94890082E465E041E055
:1009E0000E94890082E466E041E00E94890082E47E
:1009F00066E040E00E941A0182E00E94AF04AFE18D
:100A0000BEE41197F1F700C0000088E20E94AF0435
:100A10008FEC97E00197F1F700C000008CE00E9496
:100A2000AF04AFECB7E01197F1F700C0000081E030
:100A30000E94AF048FE19EE40197F1F700C000002F
:100A400086E00E94AF04AFECB7E01197F1F700C069
:100A50000000089581E00E94AF048FE19EE40197B9
:100A6000F1F700C000000895CF93DF93EC01888177
:100A7000882331F021960E94930489918823D9F725
:100A8000DF91CF910895282F2150223070F46131E9
:100A900070F4662371F0813019F4962F91580AC0D2
:100AA000823041F4962F915405C090E803C090E83D
:100AB00001C090E8892F0E94AF048FEC97E0019766
:100AC000F1F700C000000895A09AA19AA29AA39AF3
:100AD000A49AA59A0E94CB0481E40E9449000E9436
:100AE000DE030E9429078AE790E00E94340582E035
:100AF00061E00E94430586E890E00E9434050F2ED5
:100B0000F5EBCF2EF0E0DF2EF02D0AE710E00F2EF0
:100B1000F6E8EF2EF0E0FF2EF02D0F2EF6E9AF2EC7
:100B2000F0E0BF2EF02D0F2EFFE98F2EF0E09F2E6C
:100B3000F02D0F2EFAEA6F2EF0E07F2EF02DCAE096
:100B40000E941B048093C9008F3F09F4EDC08133DC
:100B500009F0D0C00E942A05C5010E94340581E039
:100B600067E00E9443058FEF94E3ACE08150904032
:100B7000A040E1F700C000000E941B048093CA005F
:100B80008F3FD1F30E9493048FEF92E5A7E081504D
:100B90009040A040E1F700C000000E941B04809339
:100BA000CB008F3FD1F30E9493048FEF92E5A7E033
:100BB00081509040A040E1F700C000009091CB0030
:100BC00090518091CA00880F282F220F220F820F88
:100BD000890F8093C6000E942A05C4010E94340533
:100BE00081E069E00E9443058FEF94E3ACE081501F
:100BF0009040A040E1F700C000000E941B048093D9
:100C0000CA008F3FD1F30E9493048FEF92E5A7E0D3
:100C100081509040A040E1F700C000000E941B04FA
:100C20008093CB008F3FD1F30E9493048FEF92E526
:100C3000A7E081509040A040E1F700C000009091F3
:100C4000CB0090518091CA00880F282F220F220FCD
:100C5000820F890F8093C7000E942A05C3010E945A
:100C6000340581E069E00E9443058FEF94E3ACE036
:100C700081509040A040E1F700C000000E941B049A
:100C80008093CA008F3FD1F30E9493048FEF92E5C7
:100C9000A7E081509040A040E1F700C000000E9412
:100CA0001B048093CB008F3FD1F30E9493048FEFFE
:100CB00092E5A7E081509040A040E1F700C000001D
:100CC0009091CB0090518091CA00880F282F220F5D
:100CD000220F820F890F8093C8000E942A05C80145
:100CE0000E94340582E061E00E944305C7010E9432
:100CF00034051AC00E942A05C6010E9434058FEFF0
:100D000099E6A8E181509040A040E1F700C00000C2
:100D10000E942A05C8010E94340582E061E00E9419
:100D20004305C7010E943405A8988091C8006C2F24
:100D30000E94370781E4692F0E944D00AFE6B7E1BA
:100D40001197F1F700C00000A89AA9988091C800F7
:100D50006C2F0E943707682F81E40E944D008FE6B8
:100D600097E10197F1F700C00000A99AAA98809135
:100D7000C7006C2F0E94370781E4692F0E944D0045
:100D8000AFE6B7E11197F1F700C00000AA9AAB985F
:100D90008091C7006C2F0E943707682F81E40E9462
:100DA0004D008FE697E10197F1F700C00000AB9A84
:100DB000AC988091C6006C2F0E94370781E4692FA0
:100DC0000E944D00AFE6B7E11197F1F700C00000B7
:100DD000AC9AAD988091C6006C2F0E943707682F9F
:100DE00081E40E944D008FE697E10197F1F700C082
:100DF0000000AD9A8091C8008C3339F41092C8007D
:100E00008091C7008F5F8093C7008091C7008C33AB
:100E100039F41092C7008091C6008F5F8093C6009E
:100E20008091C600883109F08BCE1092C60088CE22
:100E30001F920F920FB60F9211248F938091C800CA
:100E40008F5F8093C8008F910F900FBE0F901F90FF
:100E5000189582B5886082BD85B5816085BD85B5F0
:100E6000846085BD789489B7806489BF0895991B93
:100E700079E004C0991F961708F0961B881F7A9591
:0A0E8000C9F780950895F894FFCF9C
:100E8A003F065B4F666D7D477F6F3738392F3435A4
:100E9A00362A3132332D41303D2B5072657373201F
:100EAA003120746F3A005365747570207468652038
:100EBA00636C6F636B00686F7572733D2D2D004D07
:100ECA00696E757465733D2D2D005365636F6E648D
:100EDA00733D2D2D00596161203361616D20646F6E
:060EEA006F7320310000CF
:00000001FF
